:020000040800F2
:1000000060050020010100080122000831170008E6
:10001000FD210008BD0100088D230008000000003C
:10002000000000000000000000000000692200083D
:10003000C101000800000000652200086D220008D0
:100040001B0100081B0100081B0100081B01000820
:100050001B0100081B0100081B0100081B01000810
:100060001B0100081B0100081B0100081B01000800
:100070001B0100081B0100081B0100081B010008F0
:100080001B0100081B0100081B0100081B010008E0
:100090001B0100081B0100081B0100081B010008D0
:1000A0001B0100081B0100081B0100081B010008C0
:1000B0001B0100081B0100081B0100081B010008B0
:1000C0001B0100081B0100081B0100081B010008A0
:1000D0001B0100081B010008812300081B01000808
:1000E0001B0100081B0100081B010008DFF80CD0F1
:1000F00000F052F800480047B123000860050020D6
:100100000648804706480047FEE7FEE7FEE7FEE7B1
:10011000FEE7FEE7FEE7FEE7FEE7FEE771220008E6
:10012000ED000008D2B201E000F8012B491EFBD21D
:1001300070470022F6E710B513460A4604461946F2
:10014000FFF7F0FF204610BD30B505462A460B46A6
:1001500012F8010B13F8014B08B1A042F8D01CB102
:10016000002802D06D1CF1E7284630BD30B50B46A3
:10017000014600202022012409E021FA02F59D42D7
:1001800005D303FA02F5491B04FA02F52844151EAB
:10019000A2F10102F1DC30BD064C074D06E0E0683B
:1001A00040F0010394E8070098471034AC42F6D3BE
:1001B000FFF7A0FF14DC000834DC0008FEE70000B5
:1001C00070470000EFF3108072B600BFFEE700003A
:1001D000014690F82100022816D10868D1E90FC322
:1001E000026822F00E020260026822F00102026040
:1001F000012000FA03F2CCF8042081F8210000204D
:10020000002281F82020704704208863012000220A
:1002100081F820207047000080B590F82110022955
:1002200024D10268116821F00E0111602F2113689A
:10023000C4F202018A4240F20401C4F2020123F036
:100240000103136016DD3023C4F202039A421DD06D
:100250004423C4F202039A421CD05823C4F202037E
:100260009A421DD14FF4803322E000BF0421816304
:10027000012080BD0823C4F202039A420ED01C2341
:10028000C4F202039A420BD1102311E04FF48073A1
:100290000EE000BF4FF480530AE000BF012307E0E7
:1002A00001F1680C4FF08073624508BF4FF4801372
:1002B0000B60012180F82110426B002180F8201092
:1002C0000AB190470021084680BD0000B0B5044641
:1002D00000F024F9054640F20400C2F20000007864
:1002E000611C18BF044400BF00F018F9401BA04275
:1002F000FAD3B0BD2DE9F04F82B00E68002E00F0A9
:10030000038141F20042C4F20102042340F2004E94
:10031000904208BF03234FF6FF7CC4F2010E009306
:1003200000240123C1F2100C4FF0000A4FF0000925
:1003300049E000BF012704F00C030F229A402BEA8A
:10034000020207FA03F34FEA9A051A4346F82520FA
:10035000D1F804B040F20C455FEACB22DEF8082069
:1003600054BF22EA080242EA0802C4F20105CEF8AC
:1003700008202A685FEA8B2354BF22EA080242EA77
:1003800008022A605FEA8B33DEF8042054BF22EAB9
:10039000080242EA08025FEACB33CEF80420DEF816
:1003A00000204FF0010354BF22EA080242EA08028B
:1003B000CEF800200E680AF1010A36FA0AF204F1BA
:1003C000040400F0A18003FA0AF816EA080FF1D03D
:1003D0004E68664512DC122E56D8DFE806F0350B63
:1003E0004549555555555555555555555555554DE1
:1003F000510000BFD1F80C9046E000BF4FF6FF72ED
:10040000C1F2210296420FDC0022C1F21102964293
:100410001AD00022C1F21202964215D00022C1F277
:100420002102964210D02FE00022C1F22202964211
:100430000AD00022C1F23102964205D00022C1F258
:100440003202964220D100BF8A684AB1012A14BF05
:10045000C0F81480C0F810804FF0080914E000BF05
:100460004FF0040910E000BFCA6802F108090BE070
:100470004FF0000908E000BFCA6802F1040903E078
:10048000CA6802F10C0900BF22460646BAF1080FFD
:1004900024BF203A043637680F25954027EA050522
:1004A00009FA02F22A433260CA79D2067FF582AF96
:1004B00041F21803C4F202031A68AEF57E7642F0E8
:1004C00001021A601A6802F001020192019A2AF0F0
:1004D000030256F802B040F60002C4F20102904254
:1004E00010D040F60042C4F2010290423FF422AF25
:1004F00041F20002C4F20102009F904208BF0227AD
:1005000019E700BF002716E702B0BDE8F08F000032
:10051000002A08BF090401617047000040F25C1026
:10052000C2F200000068704740F2040040F25C1123
:10053000C2F20000C2F2000100780A6810440860AC
:100540007047000080B542F20000C4F2020001686A
:1005500041F010010160032000F08EF80F2000F040
:1005600005F800F027F8002080BD000070B540F2CB
:100570000406C2F2000640F20C013278C2F2000119
:100580004FF47A730968B3FBF2F20446B1FBF2F15F
:10059000084600F063FB0F2C4FF0010508D838B96E
:1005A0004FF0FF3021460022002500F039F874603A
:1005B000284670BD82B041F21800C4F20200016802
:1005C000022241F001010160016801F00101019185
:1005D0000199416841F080514160406800F08050CD
:1005E000009000980420C4F20100016862F31A61CF
:1005F000016002B070470000002848BF7047C1B2D8
:1006000000F01F00012202FA00F04EF20012CEF2BA
:10061000000242EAD10121F00301086070470000A6
:1006200010B54EF60C5CCEF2000CDCF80030C3F3D3
:10063000022E8EF00704042C28BF0424BEF103030D
:100640004FF0FF3E0EFA04F438BF0023A143994057
:100650000EFA03F39A43114300F00F0200F16043D6
:100660000901043A03F564436244002848BF02F1DB
:100670000C03197010BD00004EF60C51CEF20001B3
:100680000A684FF6FF031A4060F30A2242F08060C6
:1006900040F0FD70086070472DE9F04381B00028FC
:1006A00000F0858042F20008C4F202080446D8F83F
:1006B00000000D4600F0070088420CD2D8F8000078
:1006C00020F007002843C8F80000D8F8000000F028
:1006D0000700A8426BD1206841F204098107C4F2E7
:1006E000020917D5410705D5D9F8001041F4E0619A
:1006F000C9F80010010705D5D9F8001041F4605180
:10070000C9F80010D9F80010A26821F0F0011143D7
:10071000C9F80010C00741D1D8F8000000F0070068
:10072000A8420CD9D8F8000020F007002843C8F8E8
:100730000000D8F8000000F00700A84237D1206878
:10074000410707D5D9F80010E26821F4E0611143B0
:10075000C9F80010000708D5D9F80000216920F475
:10076000605040EAC100C9F80000D9F8002002F04A
:100770000C00082841F20020C0F27A0050D145F662
:100780000E33C2F38341C0F60003595CD2033BD45D
:1007900040F60010C0F23D00484341E06068022886
:1007A0000AD001282AD159F8041C890308D4012051
:1007B00001B0BDE8F08300BF59F8041C8901F6D5EB
:1007C000D9F8001021F003010843C9F80000FFF731
:1007D000A5FE064641F28837D9F80000616800F0AE
:1007E0000C00B0EB810F97D0FFF798FE801BB8424A
:1007F000F2D9032001B0BDE8F08300BF59F8041C12
:100800008907D4D5DCE700BFD9F8002042F218737D
:10081000C2F34042C0F600039A5C4843B0FBF2F0DA
:10082000D9F8001042F20072C1F30311C0F60002C1
:10083000515C40F20C0220FA01F140F20800C2F2D1
:1008400000000068C2F200021160FFF78FFE002076
:1008500001B0BDE8F083000040F20C0041F2040159
:10086000C2F20000C4F202010068096842F210728C
:10087000C1F30221C0F60002515CC840704700007D
:1008800040F20C0041F20401C2F20000C4F2020185
:100890000068096842F21072C1F3C221C0F600027A
:1008A000515CC840704700002DE9F04182B000283B
:1008B00068D00446007841F20006C007C4F2020680
:1008C00025D0706800F00C0004281BD0706800F080
:1008D0000C00082802D17068C00313D46068002897
:1008E00000F06881B0F5A02F00F07C81B0F5803F6A
:1008F00000F07C81306820F480303060306820F473
:10090000802076E13068800301D56068D0B320781C
:10091000800718D5706810F00C0F07D0706800F0D1
:100920000C0008286ED17068C0036BD43068800753
:1009300002D52069012825D13068616920F0F800CE
:1009400040EAC1003060207800071FD420784007BB
:1009500032D4E56995B1706800F00C00082840F0C9
:100960008F80012D0ED07068216A00F480328A4297
:1009700008D1616A00F47010884203D1002002B0EF
:10098000BDE8F081012002B0BDE8F081A069002837
:1009900062D00020C4F242200121C0F88014FFF789
:1009A000BDFD0546706A800700F18C80FFF7B6FD3B
:1009B000401B0228F6D92AE1F06910F0805808D1CE
:1009C000F06940F08050F061F06900F080500090D4
:1009D000009847F20007C4F200073868C00529D420
:1009E000386840F480703860FFF798FD054600BF16
:1009F0003868C0051ED4FFF791FD401B6428F7D965
:100A000005E100BF2069002840F20000C4F2422046
:100A100000F0828001210160FFF780FD054600BFE4
:100A2000306880073FF588AFFFF778FD401B02284C
:100A3000F6D9ECE0E068002800F08080052800F09E
:100A40009780012800F09880306A20F00100306221
:100A5000306A20F0040092E00020C4F2422000211D
:100A6000C0F88014FFF75AFD054600BF706A800782
:100A70007FF56CAFFFF752FD401B0228F6D9C6E0A8
:100A80000027C4F2422700203866FFF747FD022DF9
:100A900005460BD13068800140F1BE80FFF73EFD76
:100AA000401B02284FF00300F4D968E7306880014A
:100AB0007FF564AFFFF732FD401B02284FF00300C3
:100AC000F4D95CE740F20C00C2F20000006844F682
:100AD000D351C1F26201A0FB0101480A019000BF9D
:100AE00000BF0198411E002801913FF42FAF00BFC5
:100AF0000198411E002801913FF428AF00BF0198E2
:100B0000411E002801913FF421AF00BF0198411E12
:100B100000280191E4D119E700210160FFF7FEFCF4
:100B2000054600BF306880077FF50DAFFFF7F6FC84
:100B3000401B02284FF00300F4D920E7306A20F070
:100B400001003062306A20F004003062FFF7E6FCFA
:100B5000054641F2883700BF306A800720D5FFF78D
:100B6000DDFC401BB8424FF00300F5D907E700BF9A
:100B7000306A40F004003062306A40F001003062B8
:100B8000FFF7CCFC054641F2883700BF306A80078A
:100B900006D4FFF7C3FC401BB842F7D937E000BFCB
:100BA000B8F1000F7FF4D5AEF06920F08050F0610D
:100BB000CFE600BF306820F480303060306820F429
:100BC00080203060FFF7AAFC054600BF3068800334
:100BD0007FF59DAEFFF7A2FC401B64284FF0030099
:100BE000F4D9CCE6306840F480203060306840F4BE
:100BF00080303060FFF792FC054600BF306880030C
:100C00003FF585AEFFF78AFC401B6428F6D9032028
:100C100002B0BDE8F08100BF206AB0F5803F05D189
:100C20007168A26821F40031114371607168626AD1
:100C300021F4741111430843706001203866FFF7F6
:100C40006DFC0446306880013FF598AEFFF766FC06
:100C5000001B02284FF00300F4D990E6411E00204B
:100C6000B0EB116F1CBF012070474EF21002CEF2A4
:100C7000000251604EF62351CEF20001F0230B70BA
:100C800007219060116070477047000070470000B6
:100C9000B0B582B0044600680168C368426901F0DB
:100CA0002F05202D03F0200506D12DB1204602B0DE
:100CB000BDE8B04001F0E4BA5FEA017C1EBF02F07B
:100CC000010E03F4907212EB0E0253D1226B012A33
:100CD00005D111F0100218BF13F0100236D10A0628
:100CE00022D513F080021FD094F8411021293FD162
:100CF000A168B1F5805F03D12169002900F07082FD
:100D0000216A4A1C226209784160E18C01390A0497
:100D1000E1842DD1C16821F08001C160C16841F03A
:100D20004001C16002B0B0BD490621D513F04001B9
:100D30001ED0C16821F04001C1602021204684F806
:100D4000411002B0BDE8B04000F0F0BC00210191BC
:100D5000016801914168019101994069400613D4ED
:100D6000A08DE18DE28D002A18BF884240F0BA8143
:100D700002B0B0BDCA0718BF13F4807240F0B6804D
:100D80004A0700F1B980BEE0E06B016849688AB2A9
:100D9000002AEDD0A38D9A42EAD2E185806920280D
:100DA00000F09C80206850E8030F216820F48070D8
:100DB00041E80302DAB1206850E8030F216820F40B
:100DC000807041E8030292B1206850E8030F216867
:100DD00020F4807041E803024AB1206850E8030F14
:100DE000216820F4807041E80302002ADAD12068EB
:100DF00050E8050F216820F0010041E80502DAB152
:100E0000206850E8050F216820F0010041E8050244
:100E100092B1206850E8050F216820F0010041E8F8
:100E200005024AB1206850E8050F216820F0010052
:100E300041E80502002ADAD1206850E8050F216850
:100E400020F0400041E80502DAB1206850E8050FC3
:100E5000216820F0400041E8050292B1206850E886
:100E6000050F216820F0400041E805024AB12068E2
:100E700050E8050F216820F0400041E80502002AF3
:100E8000DAD1202084F8420000202063206850E856
:100E9000030F216820F0100041E80302DAB1206856
:100EA00050E8030F216820F0100041E8030292B1DE
:100EB000206850E8030F216820F0100041E8030289
:100EC0004AB1206850E8030F216820F0100041E883
:100ED0000302002ADAD1E06BFFF77AF9022060639F
:100EE000A08DE18D401A81B2204674E1626C42F01F
:100EF000010262644A0706D5BEF1000F03D0626C9E
:100F000042F0020262648A0706D5BEF1000F03D0E8
:100F1000626C42F004026264BCF1000F09D545EA3C
:100F20000E02B2FA82F2520903D1626C42F0080258
:100F30006264626C002A3FF41BAF11F0200118BFFD
:100F4000002D03D0204601F09BF920684069616CB8
:100F500000F0400001F00801401800F0B58000BF2B
:100F6000206850E8030F216820F4907041E80302E4
:100F7000BAB3206850E8030F216820F4907041E86C
:100F8000030272B3206850E8030F216820F49070C8
:100F900041E803022AB3206850E8030F216820F4D7
:100FA000907041E80302002ADAD11AE0206850E884
:100FB000050F216820F0010041E80502DAB1206840
:100FC00050E8050F216820F0010041E8050292B1C8
:100FD000206850E8050F216820F0010041E8050273
:100FE0004AB1206850E8050F216820F0010041E86F
:100FF0000502002ADAD1206B012824D1206850E8AC
:10100000030F216820F0100041E80302DAB12068E4
:1010100050E8030F216820F0100041E8030292B16C
:10102000206850E8030F216820F0100041E8030217
:101030004AB1206850E8030F216820F0100041E811
:101040000302002ADAD1202084F842000020206325
:101050002068406940063FD5206850E8050F2168A8
:1010600020F0400041E80502DAB1206850E8050FA1
:10107000216820F0400041E8050292B1206850E864
:10108000050F216820F0400041E805024AB12068C0
:1010900050E8050F216820F0400041E80502002AD1
:1010A000DAD1E06BC0B142F27521C0F600014163B4
:1010B000FFF7B2F800283FF45BAEE06B416B02B083
:1010C000BDE8B040084700BF2046FFF7DFFD002025
:1010D000606402B0B0BD00BF204602B0BDE8B040C1
:1010E000FFF7D4BD401A216851E8031F226821F49C
:1010F000907142E80313DBB1216851E8031F2268B5
:1011000021F4907142E8031393B1216851E8031F61
:10111000226821F4907142E803134BB1216851E831
:10112000031F226821F4907142E80313002BDAD1E7
:10113000216851E8051F226821F0010142E80513EA
:10114000DBB1216851E8051F226821F0010142E866
:10115000051393B1216851E8051F226821F00101B0
:1011600042E805134BB1216851E8051F226821F0C0
:10117000010142E80513002BDAD1202184F8421046
:1011800000212163216851E8031F226821F010012A
:1011900042E80313DBB1216851E8031F226821F004
:1011A000100142E8031393B1216851E8031F22683C
:1011B00021F0100142E803134BB1216851E8031FED
:1011C000226821F0100142E80313002BDAD1022239
:1011D00081B22046626302B0BDE8B040FFF754BD63
:1011E000216A31F8022B6FF35F22426021628CE5A5
:1011F000002804BF0120704710B5044690F8410054
:1012000028B9002084F84000204600F063F824202C
:1012100084F841002068D4E90212C36823F4005323
:10122000C360036923F440531A430261D4E90423E1
:101230001143C268194341F20C639A431143C160E0
:101240004169A26921F44071114343F60002C4F2DE
:1012500001029042416103D0FFF7FEFA02E000BFB5
:10126000FFF70EFB6268192148439100B0FBF1F0D3
:1012700048F21F51C5F2EB11A0FB01235A094FF6AA
:101280009C73C0F6FF7302FB0300322303EB0010D4
:10129000A0FB0101F02303EA5113206803EB0212C3
:1012A000C1F3431111448160016921F4904101614E
:1012B000416921F02A014161C16841F40051C160D6
:1012C00000202021606484F8411084F8421060639B
:1012D00010BD000070B586B040F60004C4F20104F1
:1012E0000068A4F5444100268842049602D006B066
:1012F00070BD00BF41F21800C4F20200416802ADA7
:1013000041F400314160416801F4003101910199DB
:10131000016841F0040101600068294600F0040002
:101320000190019804200290022003900320059070
:101330002046FEF7DFFF0820CDE9020620462946B9
:101340000496FEF7D7FF262000210022FFF768F958
:101350002620FFF751F906B070BD000090F842302A
:10136000202B1CBF0220704700294FF0010318BF3B
:10137000002A01D1184670470023036381622221AD
:101380008285C285436480F842100169006819B102
:10139000C16841F48071C1604169002341F00101DD
:1013A0004161C16841F02001C160184670470000EA
:1013B000B0B5006844F20045C4F20005A84218BF69
:1013C000B0BD40F21004C2F200046078FF280BD1D7
:1013D0000020607040F25C00C2F200004FF48071A7
:1013E000FEF7A7FE58E000BF40F25C01421EC2F2C9
:1013F00000018B5C0A2B04D06A68431C0A54024625
:101400006370885C0A2847D140F25C004DF6F931E0
:10141000C2F20000C0F60001FEF796FE10B10022F5
:101420000CE000BF40F25C004DF6E131C2F200007A
:10143000C0F60001FEF788FE70B1012205F54C40B0
:101440004FF48041FFF764F840F25C00C2F2000004
:101450004FF48071FEF76DFE40F25C004DF6EE3108
:10146000C2F20000C0F60001FEF76EFE50B940F275
:101470005C004DF60641C2F20000C0F60001FEF726
:1014800063FE38B140F25C00C2F200004FF480719C
:10149000FEF74FFE0020607040F2140040F2100191
:1014A000C2F20000C2F200010122BDE8B040FFF725
:1014B00055BF00002DE9F04381B0044690F841008B
:1014C000202840F0B180884600294FF0010000F04C
:1014D000D6801646002A00F0D280002060642120C9
:1014E0001D4684F84100FFF719F8A684E684A16838
:1014F0000646B1F5805F03D12069002800F098808E
:1015000047464FF00008E18C2068002900F09680E3
:1015100005F101090BE000BF47B317F8011B41605B
:10152000E18C0139E184E18C002900F087800168B9
:101530000906F1D4B9F1000F0AD0EDB1FEF7EEFFC4
:10154000801BA84218D8206801680906F6D5E3E791
:1015500001680906E0D4016809065CBF01685FEA1A
:101560000161D9D401680906F2D5D5E738F8021B24
:1015700000276FF35F21D2E7206850E8030F21684E
:1015800020F4D07041E80302BAB3206850E8030F9A
:10159000216820F4D07041E8030272B3206850E85B
:1015A000030F216820F4D07041E803022AB32068B9
:1015B00050E8030F216820F4D07041E80302002AAC
:1015C000DAD11AE0206850E8050F216820F0010008
:1015D00041E80502DAB1206850E8050F216820F0E3
:1015E000010041E8050292B1206850E8050F21682A
:1015F00020F0010041E805024AB1206850E8050FDB
:10160000216820F0010041E80502002ADAD12020FB
:1016100084F8410084F84200002084F84000032050
:1016200001B0BDE8F08300BF022001B0BDE8F08347
:101630000027E18C206800297FF46AAF0168490621
:1016400019D4FDB1691C0DD10168490613D4016894
:1016500049065CBF01685FEA41610CD40168490634
:10166000F2D508E0FEF75AFF801BA8420AD820688E
:1016700000684006F6D5202084F84100002001B023
:10168000BDE8F083206850E8030F216820F4D07093
:1016900041E80302002A3ED0206850E8030F216889
:1016A00020F4D07041E80302AAB3206850E8030F89
:1016B000216820F4D07041E8030262B3206850E84A
:1016C000030F216820F4D07041E80302002AD9D129
:1016D00021E000BF206850E8050F216820F00100DC
:1016E00041E80502002A3FF492AF206850E8050F58
:1016F000216820F0010041E80502002A3FF487AF8D
:10170000206850E8050F216820F0010041E805023B
:10171000002A3FF47CAF206850E8050F216820F0D4
:10172000010041E80502002AD4D170E770470000AB
:10173000FEE700002DE9F04140F60004C4F2010488
:1017400017460E46054620464FF480610022984613
:10175000FEF7DEFE2A2000F017FC20464FF48061E1
:101760000122FEF7D5FE0235A8B2000A00F00CFCFB
:10177000E8B200F009FCBD1CA8B2000A00F004FCAD
:10178000E8B200F001FC20464FF480610022FEF731
:10179000BFFE2B2000F0F8FB20464FF480610122B1
:1017A000FEF7B6FE751CA8B2000A00F0EDFBE8B229
:1017B00000F0EAFB08F10105A8B2000A00F0E4FB22
:1017C000E8B200F0E1FB20464FF480610022FEF712
:1017D0009FFE2C2000F0D8FB20464FF480610122B0
:1017E000BDE8F041FEF794BE2DE9F04381B00E460E
:1017F0008146501E591E9846154682B28BB2484605
:101800003146FFF797FF464538BFA9450DD2089CE2
:101810004F4600BF204600F0ADFB0137B8B2A842EA
:10182000F8D30136B0B24045F2D301B0BDE8F08341
:1018300010B540F60004C4F2010420464FF40071D4
:101840000022FEF765FE6420FEF740FD20464FF4BF
:1018500000710122FEF75CFE6420FEF737FD204692
:101860004FF480510122FEF753FE6420FEF72EFD57
:1018700020464FF480610022FEF74AFE112000F05E
:1018800083FB20464FF480610122FEF741FE782061
:10189000FEF71CFD20464FF480610022FEF738FE63
:1018A000B12000F071FB20464FF480610122FEF769
:1018B0002FFE052000F068FB3C2000F065FB3C207B
:1018C00000F062FB20464FF480610022FEF720FE0C
:1018D000B22000F059FB20464FF480610122FEF750
:1018E00017FE052000F050FB3C2000F04DFB3C2093
:1018F00000F04AFB20464FF480610022FEF708FE0C
:10190000B32000F041FB20464FF480610122FEF736
:10191000FFFD052000F038FB3C2000F035FB3C20AB
:1019200000F032FB052000F02FFB3C2000F02CFBE8
:101930003C2000F029FB20464FF480610022FEF796
:10194000E7FDB42000F020FB20464FF48061012227
:10195000FEF7DEFD032000F017FB20464FF4806108
:101960000022FEF7D5FDC02000F00EFB20464FF40C
:1019700080610122FEF7CCFD282000F005FB082045
:1019800000F002FB042000F0FFFA20464FF48061D3
:101990000022FEF7BDFDC12000F0F6FA20464FF40C
:1019A00080610122FEF7B4FDC02000F0EDFA204670
:1019B0004FF480610022FEF7ABFDC22000F0E4FA94
:1019C00020464FF480610122FEF7A2FD0D2000F0B9
:1019D000DBFA002000F0D8FA20464FF480610022A4
:1019E000FEF796FDC32000F0CFFA20464FF4806149
:1019F0000122FEF78DFD8D2000F0C6FA2A2000F0AE
:101A0000C3FA20464FF480610022FEF781FDC42016
:101A100000F0BAFA20464FF480610122FEF778FD0B
:101A20008D2000F0B1FAEE2000F0AEFA20464FF41F
:101A300080610022FEF76CFDC52000F0A5FA20466B
:101A40004FF480610122FEF763FD1A2000F09CFA3A
:101A500020464FF480610022FEF75AFD362000F048
:101A600093FA20464FF480610122FEF751FDC02019
:101A700000F08AFA20464FF480610022FEF748FD0C
:101A8000E02000F081FA20464FF480610122FEF749
:101A90003FFD042000F078FA222000F075FA0720BC
:101AA00000F072FA0A2000F06FFA2E2000F06CFAB3
:101AB000302000F069FA252000F066FA2A2000F0B4
:101AC00063FA282000F060FA262000F05DFA2E204C
:101AD00000F05AFA3A2000F057FA002000F054FAC9
:101AE000012000F051FA032000F04EFA132000F01C
:101AF0004BFA20464FF480610022FEF709FDE120F9
:101B000000F042FA20464FF480610122FEF700FD0A
:101B1000042000F039FA162000F036FA062000F012
:101B200033FA0D2000F030FA2D2000F02DFA262097
:101B300000F02AFA232000F027FA272000F024FAE8
:101B4000272000F021FA252000F01EFA2D2000F0B9
:101B50001BFA3B2000F018FA002000F015FA0120D3
:101B600000F012FA042000F00FFA132000F00CFA33
:101B700020464FF480610022FEF7CAFC3A2000F0B4
:101B800003FA20464FF480610122FEF7C1FC0520D4
:101B900000F0FAF920464FF480610022FEF7B8FC0D
:101BA000292000F0F1F920464FF480610122BDE8C0
:101BB0001040FEF7ADBC00002DE9F04F85B00F9E40
:101BC00081464FEA56083009049315468B46012199
:101BD0005FEA487218BF01EB161000FB06F409EB30
:101BE00056000BEB06010138013982B28BB2484630
:101BF0005946FFF79FFD002C00F09581A6F10C00DF
:101C0000C1B2800140EA9100C2B2052A00F28B8184
:101C10000120904010F02B0F00F085811099A5F164
:101C20002000002944F24E3E42F21A7342F68E3CE6
:101C300043F27E11C0B2C0F6000EC0F60003C0F63B
:101C4000000CC0F60001039200F0C48000EB4006D7
:101C500003EB860501EB0613002702930CEB001340
:101C60000EEB80104E460193009000BF032A05D072
:101C7000012A05D028462AB1009802E0029800E027
:101C80000198384490F800A05FEACA700AD0B0B258
:101C90001FFA8BF102460B46FFF74CFD049800F04B
:101CA00069F9039A701C80B2A0EB0901414500F06C
:101CB00087805FEA8A7109D51FFA8BF102460B46CD
:101CC000FFF738FD049800F055F9039AB01C80B274
:101CD000A0EB0901414573D05FEA4A7109D51FFAAB
:101CE0008BF102460B46FFF725FD049800F042F900
:101CF000039AF01C80B2A0EB0901414560D05FEA75
:101D00000A7109D51FFA8BF102460B46FFF712FD47
:101D1000049800F02FF9039A301D80B2A0EB09015E
:101D200041454DD05FEACA6109D51FFA8BF10246E1
:101D30000B46FFF7FFFC049800F01CF9039A701D96
:101D400080B2A0EB090141453AD05FEA8A6109D52A
:101D50001FFA8BF102460B46FFF7ECFC049800F0EB
:101D600009F9039AB01D80B2A0EB0901414527D0C3
:101D70005FEA4A6109D51FFA8BF102460B46FFF76D
:101D8000D9FC049800F0F6F8039AF01D80B2A0EB9D
:101D90000901414514D04FFA8AF1B1F1FF3F09DC46
:101DA0001FFA8BF102460B46FFF7C4FC049800F0C3
:101DB000E1F8039A0836B0B2A0EB0900404502D121
:101DC0000BF1010B4E460137013C05F101057FF493
:101DD0004DAFA8E0DDF838A000EB40010EEB801716
:101DE0000026029103EB81010CEB00104FF0000B79
:101DF0000191009072B1012A0ED0DDF81090032AF3
:101E000038460DD143F27E10029AC0F6000000EB76
:101E1000021004E0019800E00098DDF810903044D2
:101E20000578E807484608BF504600F0A3F80BF1D4
:101E30000100C0B2B0FBF8F101FB1800002869D026
:101E4000A807484658BF504600F094F80BF102002E
:101E5000C0B2B0FBF8F101FB180000285AD06807A7
:101E6000484658BF504600F085F80BF10300C0B259
:101E7000B0FBF8F101FB180000284BD028074846BA
:101E800058BF504600F076F80BF10400C0B2B0FB2A
:101E9000F8F101FB1800E8B3E806484658BF504681
:101EA00000F068F80BF10500C0B2B0FBF8F101FBDF
:101EB000180078B3A806484658BF504600F05AF8B4
:101EC0000BF10600C0B2B0FBF8F101FB180008B33B
:101ED0006806484658BF504600F04CF80BF1070022
:101EE000C0B2B0FBF8F101FB180098B168B200284D
:101EF00058BFD14648460BF1080500F03BF8E8B260
:101F0000B0FBF8F101FB180BBBF1000F18BFAB469B
:101F100002E000BF4FF0000B039A0136013C07F1CD
:101F200001077FF467AF05B0BDE8F08F2DE9F04FF2
:101F300083B09B461378CBB1DDE90C9ADDF838808D
:101F40000D4606464FEA5A07541E00BFB0B2DAB239
:101F500029465B46CDE9009ACDF80880FFF72CFEB4
:101F6000A3783E44002B04F10104EFD103B0BDE897
:101F7000F08F000010B50446000A00F005F8E0B24A
:101F8000BDE81040AFF3008070B540F60045C4F2E4
:101F90000105A5F58064064620464FF40061002245
:101FA000FEF7B6FA28464FF400410022FEF7B0FAD9
:101FB000F20920464FF48071FEF7AAFA28464FF442
:101FC00000410122FEF7A4FA28464FF40041002206
:101FD000FEF79EFAC6F3801220464FF48071FEF79A
:101FE00097FA28464FF400410122FEF791FA28465D
:101FF0004FF400410022FEF78BFAC6F34012204650
:102000004FF48071FEF784FA28464FF40041012214
:10201000FEF77EFA28464FF400410022FEF778FAD8
:10202000C6F3001220464FF48071FEF771FA28467D
:102030004FF400410122FEF76BFA28464FF40041AD
:102040000022FEF765FAC6F3C00220464FF4807105
:10205000FEF75EFA28464FF400410122FEF758FAD7
:1020600028464FF400410022FEF752FAC6F38002E0
:1020700020464FF48071FEF74BFA28464FF400419A
:102080000122FEF745FA28464FF400410022FEF7F0
:102090003FFAC6F3400220464FF48071FEF738FA4B
:1020A00028464FF400410122FEF732FA28464FF449
:1020B00000410022FEF72CFA06F0010220464FF400
:1020C0008071FEF725FA28464FF400410122FEF701
:1020D0001FFA20464FF400610122BDE87040FEF770
:1020E00017BA00002DE9F04F85B041F21800C4F294
:1020F0000200016840F6000941F01001016001682A
:10210000C4F2010901F0100101910199016809F57A
:10211000006541F0200101600168012201F0200109
:102120000191019901684FF4C04741F00401016039
:1021300001684FF0010801F0040101910199016863
:1021400041F00801016000684FF4C04100F0080050
:10215000019001982846FEF7DBF909F580663046C4
:102160004FF4004100220024FEF7D2F948464FF414
:10217000F85100224FF4F85BFEF7CAF9CDE9017877
:1021800001AF4FF0020A284639460394CDF810A05B
:10219000FEF7B0F84FF40040CDE90108304639466B
:1021A000CDE9034AFEF7A6F848463946CDE901B81D
:1021B000CDE9034AFEF79EF805B0BDE8F08F0000B8
:1021C00080B540F2140044F20041C2F20000C4F2B3
:1021D000000100234FF00C0C4FF4E13280E80E00B8
:1021E000C0E90333C0E905C3C361FFF701F8002864
:1021F00008BF80BDBDE88040FDF7E4BFFEE70000FA
:10220000FEE700002DE9F04F81B000920A9A2AB350
:102210001C461BB30E4607464FEA440A4FF0000B1C
:1022200000984FF000080BEB000900BF08EB060018
:1022300080B21FFA89F137F8185002460B46FFF7B3
:1022400079FA2846FFF796FE08F101084445EDD1DA
:102250000A980BF1010B83455744E1D101B0BDE869
:10226000F08F00007047000070470000FEF75CB977
:1022700070470000406A0021C185C184FEF706BD99
:1022800081B090F84210222921D183680246B3F52B
:10229000805F09D152F8281F52F8183C002B63D0F8
:1022A00003685B680AE000BF52F8281F13B903698E
:1022B000002BF5D003685B6803F07F030B70116897
:1022C00001311160C18D01390A04C18502D001B00C
:1022D000704700BF0168CA6822F02002CA60CA685D
:1022E00022F48072CA604A6922F001024A61202108
:1022F00080F8421000214163026B012A3CD1016346
:10230000016851E8031F026821F0100142E803133D
:10231000DBB1016851E8031F026821F0100142E8B7
:10232000031393B1016851E8031F026821F0100103
:1023300042E803134BB1016851E8031F026821F022
:10234000100142E80313002BDAD101680A68D206B3
:1023500006D5002200920A6800924968009100990F
:10236000818D01B0FEF790BC026852686FF35F2266
:1023700021F8022B8162A5E701B0FFF719B8000030
:1023800040F21400C2F20000FEF782BCFEE700003B
:1023900080B582B0019040F21400C2F2000001A9A1
:1023A00001224FF47A73FFF785F8019802B080BDDF
:1023B00092B0FEF7C7F800240120CDE90D44CDE925
:1023C0000B4408900C904FF4E0104FF4803102253C
:1023D000119008A8CDE90914CDE90F51FEF764FA70
:1023E00020B1EFF3108072B6FEE700BF0F20CDE9F9
:1023F00003054FF48060CDE9060403A8022105948B
:10240000FEF74AF920B1EFF3108072B6FEE700BF85
:1024100041F20004C4F20104FFF764FEFFF7D0FEAE
:10242000FFF706FA0025002000218022A023009556
:10243000FFF7DAF918204FF6FF710126CDE90010F9
:1024400037A2052005214FF4FC630296FFF76EFDCD
:1024500045F61E307F26C0F600000021232280238F
:102460000096FFF7CFFE40F2140040F25C01C2F28A
:102470000000C2F200010122FEF770FF4FF47A70F3
:10248000FDF724FF28A000F029F940F6B830FDF749
:102490001DFF4DF67020C0F6000000F01FF940F25D
:1024A000DC50FDF713FF4DF6EB20C0F6000000F006
:1024B00015F94FF47A70FDF709FF4DF69830C0F624
:1024C000000000F00BF94FF4FA60FDF7FFFE4DF647
:1024D0005230C0F6000000F001F940F2DC50FDF788
:1024E000F5FE4DF61E26C0F6000600BF20464FF44E
:1024F00000510022FEF70CF8C820FDF7E7FE204649
:102500004FF400510122FEF703F8304629462A46CF
:1025100000F01AF84FF47A70FDF7D8FE0135E5E7C0
:102520004C6F6F707900000041542B43574A415063
:102530003D22584D50222C223132333435363778F3
:102540006D706D32220D00000FB4054B10B503A95C
:10255000044A029800F018F810BC5DF814FB000063
:10256000912300080000002002E008C8121F08C1E3
:10257000002AFAD170477047002001E001C1121F04
:10258000002AFBD1704700002DE9FF4F89B09B4620
:102590000446002506E025280BD05A460B999047A3
:1025A000641C6D1C20780028F5D10DB02846BDE8CC
:1025B000F08F0027B8460122474900E0074314F88E
:1025C000013F203B02FA03F00842F7D120782E2881
:1025D00019D114F8010F47F004072A280ED06FF024
:1025E0002F022078A0F1300109290CD808EB8801CE
:1025F00002EB410100EB0108641CF2E70A98641C3D
:1026000050F8048B0A9020780028CED0642808D097
:10261000692806D075281ED05A460B9990476D1C24
:1026200058E00A994FF00A0901C90A91002802DA14
:1026300040422D2102E0390504D52B218DF82010D0
:10264000012103E0F90704D02021F7E78A4608AE0C
:102650000DE00021FAE70A994FF00A0901C90A9131
:10266000F7E74946FDF782FD303106F8011D0028E5
:10267000F7D1ADEB060000F12009780701D44FF047
:102680000108C84502DDA8EB090000E000208046F3
:10269000002706E008A85A46C05D0B9990476D1CBC
:1026A0007F1C5745F6DB04E030205A460B999047D3
:1026B0006D1CB8F10001A8F10108F5DC05E016F881
:1026C000010B5A460B9990476D1CB9F10001A9F115
:1026D0000109F4DC641C65E70928010010B5044613
:1026E00001E0FFF755FE14F8010B04490028F8D16A
:1026F000BDE810400A20FFF74BBE0000000000209C
:1027000000000000000000000102030406070809A1
:1027100000000000010203040102000000000000AC
:102720000000000000000000040404040400000491
:10273000000014140A000000000000000000000067
:102740000A0A1F0A0A1F0A0A000000040E150506DD
:102750000C14150E0400000012150D152E2C2A1253
:1027600000000000040A0A361515291600000202AE
:10277000010000000000000000001008080404042C
:1027800004040808100002040408080808080404E7
:10279000020000000004150E0E15040000000000E9
:1027A0000008083E080800000000000000000000CB
:1027B00000000202010000000000003F00000000D5
:1027C00000000000000000000000000200000020E7
:1027D0001010080804040202010000000E1111117B
:1027E0001111110E00000000040604040404040E7C
:1027F000000000000E1111080402011F000000007B
:102800000E11100C1010110E00000000080C0C0A24
:10281000091F081C000000001F01010F1110110EFC
:10282000000000000C12010D1311110E0000000039
:102830001E10080804040404000000000E11110E0C
:102840001111110E000000000E11111916100906C9
:102850000000000000000400000000040000000070
:10286000000000040000000404000000100804023E
:10287000020408100000000000003F003F000000BC
:10288000000000000204081010080402000000000C
:102890000E11110804040004000000001C22292D60
:1028A0002D1D221C0000000004040C0A0A1E123315
:1028B000000000000F12120E1212120F0000000092
:1028C0001E1101010101110E000000000F12121271
:1028D0001212120F000000001F120A0E0A02121F2D
:1028E000000000001F120A0E0A020207000000008A
:1028F0001C1201013911120C000000003312121ECB
:1029000012121233000000001F0404040404041F08
:10291000000000003E080808080808080907000031
:1029200037120A060A1212370000000007020202DC
:102930000202223F000000003B1B1B1B1515153532
:10294000000000003B1216161A1A121700000000B1
:102950000E1111111111110E000000000F12120EB4
:1029600002020207000000000E1111111117190ECA
:10297000180000000F12120E0A1212370000000099
:102980001E1101060810110F000000001F1504049D
:102990000404040E00000000331212121212120C72
:1029A000000000003312120A0A0C040400000000A8
:1029B000151515150E0A0A0A000000001B0A0A0464
:1029C000040A0A1B000000001B0A0A0A0404040E81
:1029D000000000001F0908040402121F00001C046C
:1029E00004040404040404041C000002020404049B
:1029F0000808081010000E08080808080808080849
:102A00000E00040A000000000000000000000000AA
:102A10000000000000000000003F02040000000071
:102A200000000000000000000000000C121C123C1E
:102A3000000000030202020E1212120E000000003B
:102A40000000001C1202120C000000181010101CD4
:102A50001212123C000000000000000C121E021CAA
:102A6000000000182404041E0404041E00000000DA
:102A70000000003C120C021C221C00030202020E89
:102A80001212123700000004040000060404040EB1
:102A9000000000080800000C0808080808070003E8
:102AA0000202021A0A060A130000000704040404C2
:102AB0000404041F000000000000000F1515151588
:102AC000000000000000000F12121237000000008A
:102AD0000000000C1212120C000000000000000F99
:102AE0001212120E020700000000001C1212121C2B
:102AF000103800000000001B060202070000000062
:102B00000000001E020C101E000000000004041E45
:102B10000404041C000000000000001B1212123C00
:102B2000000000000000001B0A0A0404000000006E
:102B300000000015150E0A0A000000000000001B2E
:102B40000A040A1B000000000000003312120C08E7
:102B5000040300000000001E0804041E0000180802
:102B60000808080C080808081800080808080808D9
:102B700008080808080806040404040804040404F7
:102B80000600160900000000000000000000000020
:102B90000000000000000000000000000000000035
:102BA0000008080808080808000018180000004875
:102BB0006C24120000000000000000000000000073
:102BC000002424247F1212127F121212000000002F
:102BD000081C2A2A0A0C1828282A2A1C080800007F
:102BE0000022251515152A585454542200000000BF
:102BF000000C1212120A76252911916E00000006AF
:102C00000604030000000000000000000000004077
:102C100020101008080808080810102040000002C2
:102C2000040808101010101010080804020000001A
:102C3000000008086B1C1C6B080800000000000066
:102C40000000080808087F080808080000000000C5
:102C50000000000000000000000006060403000061
:102C6000000000000000FE00000000000000000066
:102C70000000000000000000000006060000000048
:102C800080404020201010080804040202000000C8
:102C900000182442424242424242241800000000EE
:102CA00000080E08080808080808083E0000000090
:102CB000003C4242422020100804427E00000000F6
:102CC000003C4242201820404042221C00000000EC
:102CD00000203028242422227E20207800000000BA
:102CE000007E0202021A26404042221C0000000020
:102CF00000382402021A2642424224180000000032
:102D0000007E2222101008080808080800000000B1
:102D1000003C4242422418244242423C000000004F
:102D200000182442424264584040241C0000000025
:102D30000000000018180000000018180000000033
:102D40000000000000080000000000080804000067
:102D50000040201008040204081020400000000079
:102D6000000000007F0000007F0000000000000065
:102D70000002040810204020100804020000000097
:102D8000003C42424640201010001818000000008D
:102D9000001C225A555555552D42221C000000009A
:102DA000000808181414243C224242E700000000E6
:102DB000001F2222221E22424242221F0000000047
:102DC000007C4242010101010142221C000000007E
:102DD000001F2242424242424242221F00000000A3
:102DE000003F4212121E12120242423F0000000037
:102DF000003F4212121E12120202020700000000DF
:102E0000003C2222010101712122221C000000004D
:102E100000E7424242427E42424242E70000000056
:102E2000003E0808080808080808083E00000000DE
:102E3000007C10101010101010101010110F000056
:102E4000007722120A0E0A121222227700000000D6
:102E500000070202020202020202427F000000009A
:102E60000077363636362A2A2A2A2A6B00000000D6
:102E700000E346464A4A525252626247000000004E
:102E8000001C2241414141414141221C00000000FF
:102E9000003F424242423E0202020207000000009E
:102EA000001C2241414141414D53321C6000000051
:102EB000003F4242423E1212222242C7000000005E
:102EC000007C4242020418204042423E00000000C2
:102ED000007F4908080808080808081C00000000CE
:102EE00000E74242424242424242423C000000006D
:102EF00000E74242222424141418080800000000AD
:102F0000006B4949494955553622222200000000EC
:102F100000E7422424181818242442E70000000087
:102F200000772222141408080808081C000000007A
:102F3000007E2120101008040442423F0000007867
:102F400008080808080808080808080878000000A9
:102F50000202040408080810102020204040001E2F
:102F60001010101010101010101010101E0000384B
:102F7000440000000000000000000000000000000D
:102F800000000000000000000000000000FF00063C
:102F90000800000000000000000000000000000029
:102FA00000000000003C4278444242FC0000000067
:102FB00000030202021A26424242261A00000000C2
:102FC0000000000000384402020244380000000003
:102FD0000060404040784442424264D80000000013
:102FE00000000000003C427E0202423C0000000063
:102FF00000F08808087E08080808083E0000000065
:1030000000000000007C22221C023C42423C0000E6
:1030100000030202023A4642424242E70000000038
:10302000000C0C00000E08080808083E0000000014
:10303000003030000038202020202020221E0000F8
:10304000000302020272120A161222770000000028
:10305000000E0808080808080808083E00000000DC
:1030600000000000007F9292929292B70000000050
:1030700000000000003B4642424242E700000000E0
:1030800000000000003C42424242423C000000007E
:1030900000000000001B26424242221E02070000E0
:1030A00000000000007844424242447840E00000C2
:1030B0000000000000774C040404041F000000001E
:1030C00000000000007C42023C40423E0000000044
:1030D00000000008083E080808080830000000004A
:1030E0000000000000634242424262DC0000000037
:1030F0000000000000E7422424140808000000003B
:103100000000000000EB4949555522220000000054
:1031100000000000007624181818246E000000003B
:103120000000000000E742242414180808070000EB
:1031300000000000007E22100808447E000000C04D
:10314000202020202010202020202020C00010102F
:103150001010101010101010101010101010000689
:1031600008080808081008080808080806000C32B3
:10317000C20000000000000000000000000000008D
:10318000000000000000000000000000000000003F
:10319000000000000000000000000000000000002F
:1031A000000000000000000000000000000000001F
:1031B000000000000000600060006000600060002F
:1031C000600060004000200020002000000000009F
:1031D00000006000600060000000000000000000CF
:1031E000000060066006300398018800440000007B
:1031F00000000000000000000000000000000000CF
:1032000000000000000000000000000000000000BE
:103210000000000000001002100210021002FE0761
:10322000FE0708020801080108010801FE07FE0761
:10323000040104010401040100000000000000007A
:103240000000000040004000F00158034C03CC0394
:103250004C0058007000E000C001C00140034C0366
:103260005C034C034801F0004000400000000000F7
:103270000000000000000E010A0191009100910081
:10328000510051003A00AE03A0025004500448041B
:103290004804480484028403000000000000000089
:1032A00000000000000038006C006C006C006C0036
:1032B0006C002C0098071C011A01330133016301D3
:1032C000E300C308C6093C0700000000000000003E
:1032D00000000C001C00100010000800040000009A
:1032E00000000000000000000000000000000000DE
:1032F00000000000000000000000000000000000CE
:103300000000000400020001800080004000400036
:10331000200020002000200020002000200040008D
:103320004000800080000001000200040000000056
:10333000000002000400080010001000200020001F
:10334000400040004000400040004000400020009D
:10335000200010001000080004000200000000001F
:10336000000000000000000000004000C00040001D
:10337000460C4E0FD001F0015E0F460C400040009D
:1033800040000000000000000000000000000000FD
:1033900000000000000000000000000040004000AD
:1033A000400040004000FE0F400040004000400050
:1033B00040000000000000000000000000000000CD
:1033C00000000000000000000000000000000000FD
:1033D00000000000000000000000000000000000ED
:1033E00000000C001C001000100008000400000089
:1033F00000000000000000000000000000000000CD
:10340000000000000000FE070000000000000000B7
:1034100000000000000000000000000000000000AC
:10342000000000000000000000000000000000009C
:10343000000000000000000000000000000000008C
:1034400000001C001C001C00000000000000000028
:1034500000000004000600020003000100018000DB
:10346000800040004000600020002000100010009C
:10347000080008000C000400060002000000000024
:103480000000000000000000F00098010C030C0395
:1034900006060606060606060606060606060606CC
:1034A0000C030C039801F000000000000000000075
:1034B000000000000000000040007C006000600090
:1034C00060006000600060006000600060006000FC
:1034D000600060006000FC030000000000000000CD
:1034E0000000000000000000F80084010203060351
:1034F0000603000300018001C000600020001000EE
:10350000080204020602FE030000000000000000A2
:1035100000000000000000007800C600860186015F
:1035200080018001C00070008001000100030003E1
:10353000060306038601F8000000000000000000FA
:10354000000000000000000080018001C001A00117
:10355000A00190018801880184018201FE0F800191
:10356000800180018001E0070000000000000000F1
:103570000000000000000000FC0304000400040040
:1035800004000400F4008C0104030003000306039C
:10359000060382018401F800000000000000000022
:1035A0000000000000000000E00118030C030C0004
:1035B00004000600E60116030E06060606060606C9
:1035C00004060C021803F0000000000000000000D8
:1035D0000000000000000000F8070C0604020401CF
:1035E00000010001800080004000400040006000B9
:1035F000600060006000600000000000000000004B
:103600000000000000000000F8010C03060606069A
:1036100006060C021C03F000C8010C030606060691
:10362000060606060C03F001000000000000000082
:103630000000000000000000F0000C010C03060276
:1036400006060606060606078C0678060006000330
:1036500000030C018C017800000000000000000055
:10366000000000000000000000000000000000005A
:103670000000E000E000E0000000000000000000AA
:103680000000E000E000E00000000000000000009A
:10369000000000000000000000000000000000002A
:1036A000000060006000000000000000000000005A
:1036B00000000000600060004000200020000000CA
:1036C0000000000000000004000200018000400033
:1036D0002000100008000400080010002000400036
:1036E0008000000100020004000000000000000053
:1036F00000000000000000000000000000000000CA
:103700000000FE07000000000000FE0700000000AF
:1037100000000000000000000000000000000000A9
:10372000000000000000040008001000200040001D
:10373000800000010002000400020001800040003F
:10374000200010000800040000000000000000003D
:103750000000000000000000E0031806040C040C48
:103760000C0C0C0C000780014000400040000000E1
:103770000000E000E000E0000000000000000000A9
:10378000000000000000E00018030C02CC056405F6
:103790006605A605B604B604B604B604B602E4018E
:1037A0000C040C021803F0000000000000000000F0
:1037B0000000000000000000600060005000D00029
:1037C00090009000880088010801F80104030403B8
:1037D0000402020202060F0F0000000000000000B9
:1037E0000000000000000000FE008C030C030C032E
:1037F0000C030C038C01FC000C030C020C060C06E1
:103800000C060C060C03FE01000000000000000086
:103810000000000000000000E00318030C060C0488
:103820000404060006000600060006000600060462
:103830000C040C021803F00000000000000000005F
:1038400000000000000000007F008C010C030C034E
:103850000C060C060C060C060C060C060C060C06D8
:103860000C030C038C017F0000000000000000002E
:103870000000000000000000FF0306030604060429
:10388000060086008600FE00860086008600060090
:10389000060406040602FF0300000000000000000A
:1038A0000000000000000000FF03060306040604F9
:1038B000060086008600FE00860086008600060060
:1038C0000600060006001F000000000000000000C7
:1038D0000000000000000000F00018010C020C02C3
:1038E00004020600060006000600C60F06030603D3
:1038F0000C030C031803F00000000000000000009F
:1039000000000000000000000F0F06060606060675
:10391000060606060606FE0706060606060606064E
:103920000606060606060F0F000000000000000055
:103930000000000000000000FC0360006000600068
:103940006000600060006000600060006000600077
:10395000600060006000FC03000000000000000048
:103960000000000000000000F807C000C000C00018
:10397000C000C000C000C000C000C000C000C00047
:10398000C000C000C000C000C60066003C000000CF
:103990000000000000000000CF038601C6004600C2
:1039A0002600160036002E006E004600C600860077
:1039B0008601060106038F070000000000000000DA
:1039C00000000000000000001F00060006000600C6
:1039D00006000600060006000600060006000600B7
:1039E000060406040602FF030000000000000000B9
:1039F00000000000000000000707860386038E0316
:103A00008E034E034E034A035A035A033A0332030A
:103A10003203320312038707000000000000000099
:103A200000000000000000008E0F0C021C021C02AF
:103A300034023402640264024402C4028402840335
:103A40008403040304031F020000000000000000C0
:103A50000000000000000000F00098010C030C02C0
:103A600006060606060606060606060606060606F6
:103A70000C020C039801F0000000000000000000A0
:103A80000000000000000000FF0006030606060616
:103A90000606060606068603FE0006000600060069
:103AA0000600060006001F000000000000000000E5
:103AB0000000000000000000F00098010C030C0260
:103AC0000606060606060606060606060606760626
:103AD0004C02CC039801F0008007000300000000B6
:103AE0000000000000000000FF01060306060606B5
:103AF000060606060603FE004600C600860086018E
:103B00000603060306060F0E00000000000000007A
:103B10000000000000000000F8020C03060206028C
:103B200006000E003C00F800E003800300070206D8
:103B3000020606060C03F001000000000000000071
:103B40000000000000000000FE0762046108610838
:103B50006000600060006000600060006000600065
:103B6000600060006000F80100000000000000003C
:103B700000000000000000001E070C020C020C02F6
:103B80000C020C020C020C020C020C020C020C02C5
:103B90000C020C021801F000000000000000000000
:103BA00000000000000000000F07060204010401ED
:103BB0000C010C018800880098009800500050000B
:103BC0007000300020002000000000000000000015
:103BD0000000000000000000F70E620442044604EA
:103BE000460464026402E402E4029C029C0198011F
:103BF0009801880188008800000000000000000093
:103C000000000000000000009E070C0108011801E0
:103C10009000B0006000200060006000D0009000C4
:103C20008801080104038E07000000000000000066
:103C300000000000000000000F0F060404020C0248
:103C400008011801B800B00070006000600060005A
:103C5000600060006000F80100000000000000004B
:103C60000000000000000000FC070C020603020137
:103C7000800180004000400020002000100018005B
:103C800008040C040402FE03000000000000000011
:103C90000000E00320002000200020002000200081
:103CA0002000200020002000200020002000200014
:103CB00020002000200020002000E0030000000081
:103CC00000000000000004000400080008001000CC
:103CD000100010002000200040004000C0008000C4
:103CE0008000000100010002000200020004000048
:103CF00000007C00400040004000400040004000C8
:103D000040004000400040004000400040004000B3
:103D1000400040004000400040007C0000000000E7
:103D2000600090000801000000000000000000009A
:103D30000000000000000000000000000000000083
:103D40000000000000000000000000000000000073
:103D50000000000000000000000000000000000063
:103D60000000000000000000000000000000000053
:103D7000000000000000000000000000FF0F000035
:103D800000001800600000000000000000000000BB
:103D90000000000000000000000000000000000023
:103DA0000000000000000000000000000000000013
:103DB0000000000000000000000000000000000003
:103DC0000000F0010C030C030003E0031C030E03CE
:103DD000060306038E0B7C0E0000000000000000AE
:103DE00000000000000008000E000C000C000C0099
:103DF0000C00CC013C031C060C060C060C060C0641
:103E00000C060C021C03E40100000000000000008E
:103E100000000000000000000000000000000000A2
:103E20000000F0008C018C018601060006000600EF
:103E300006020C020C01F00000000000000000006F
:103E40000000000000000002C003000300030003A4
:103E5000000378038C030C03060306030603060322
:103E6000060304038C077801000000000000000036
:103E70000000000000000000000000000000000042
:103E80000000E001180308020C060C06FC070C00F9
:103E90000C0018041802E0010000000000000000FF
:103EA0000000000000000000C00360063006300083
:103EB0003000FE01300030003000300030003000B3
:103EC000300030003000FC01000000000000000065
:103ED00000000000000000000000000000000000E2
:103EE0000000F007D8068C018C018C019801F800C5
:103EF0000C00FC00CC03060306038E03F800000050
:103F000000000000000008000E000C000C000C0077
:103F10000C00EC011C030C030C030C030C030C033E
:103F20000C030C030C039E070000000000000000BF
:103F300000000000000000006000600000000000C1
:103F400040007C0060006000600060006000600075
:103F5000600060006000FC03000000000000000042
:103F60000000000000000000C001C00100000000CF
:103F70000001F00180018001800180018001800149
:103F800080018001800180018001CC007C00000064
:103F900000000000000008000E000C000C000C00E7
:103FA0000C008C038C008C004C006C005C008C00BE
:103FB0008C010C010C039E070000000000000000B3
:103FC00000000000000040007C0060006000600015
:103FD00060006000600060006000600060006000E1
:103FE000600060006000FC030000000000000000B2
:103FF00000000000000000000000000000000000C1
:1040000000003707EE066606660666066606660662
:10401000660666066606FF0F00000000000000004E
:104020000000000000000000000000000000000090
:104030000000EE011C030C030C030C030C030C0327
:104040000C030C030C039E0700000000000000009E
:104050000000000000000000000000000000000060
:104060000000F00098010C03060606060606060688
:1040700006060C030C03F000000000000000000026
:104080000000000000000000000000000000000030
:104090000000EE011C030C060C060C060C060C06B8
:1040A0000C060C031C03EC010C000C003E0000008D
:1040B0000000000000000000000000000000000000
:1040C000000078028C030C030603060306030603B4
:1040D000060304038C03780300030003C0070000F9
:1040E00000000000000000000000000000000000D0
:1040F00000009F0358063806180018001800180022
:10410000180018001800FF00000000000000000068
:10411000000000000000000000000000000000009F
:104120000000F0031C030C020C023800F000C00376
:10413000040304038C03FC010000000000000000E5
:1041400000000000000000000000200020003000FF
:104150003000FE0130003000300030003000300010
:10416000300030023002E0010000000000000000DA
:10417000000000000000000000000000000000003F
:1041800008028E030C030C030C030C030C030C033A
:104190000C030C039C0778010000000000000000E5
:1041A000000000000000000000000000000000000F
:1041B00000001E070C020801080118019000B00061
:1041C000B00060006000200000000000000000005F
:1041D00000000000000000000000000000000000DF
:1041E0000000F70E6204460464026402EC029C01C3
:1041F00098019801980108000000000000000000EC
:1042000000000000000000000000000000000000AE
:104210000000BC0718011001B00060006000E00061
:104220009000080108039E07000000000000000045
:10423000000000000000000000000000000000007E
:1042400000009E0708010801080190009000B000DE
:104250006000600060002000200024001C000000BE
:10426000000000000000000000000000000000004E
:104270000000FC018401C400440060002000300004
:10428000180208020C03FC010000000000000000FE
:10429000000000038000800080008000800080001B
:1042A00080008000400020004000800080008000EE
:1042B000800080008000800080000003000040003B
:1042C00040004000400040004000400040004000EE
:1042D00040004000400040004000400040004000DE
:1042E000400040004000400040004000400000000E
:1042F00000000C0010001000100010001000100052
:1043000010001000200040002000100010001000DD
:10431000100010001000100010000C000000000041
:104320001C002204C2048003000000000000000002
:10433000000000000000000000000000000000007D
:10434000000000000000000000000000000000006D
:10435000000000000000000000000000000000005D
:10436000000000000000000000000000000000004D
:10437000000000000000000000000000000000003D
:10438000000000000000000000000000000000002D
:104390000000000000000000C001C001C001C00119
:1043A000C001C001C001800080008000800080004A
:1043B0008000800000000000000000008001C003B9
:1043C000C0038001000000000000000000000000A9
:1043D00000000000E01CE01CF01E700E38071803FF
:1043E0000801840000000000000000000000000040
:1043F00000000000000000000000000000000000BD
:1044000000000000000000000000000000000000AC
:10441000000000000000000000002010201020100C
:1044200020102010FE7FFE7F1008100810081008D2
:10443000100810081008FE7FFE7F08040804080416
:104440000804080400000000000000000000000054
:1044500000000000000000010001C00760191031D9
:1044600018311839183938017001E001C00380078C
:10447000000F001D003900311C311C310C310C11B2
:10448000180DE0070001000100010000000000001D
:10449000000000000000000000001C103618630837
:1044A000630C63046304630263026301361D9C377B
:1044B0008022806340634063206320633063102266
:1044C0001836081C0000000000000000000000007A
:1044D00000000000000000000000F00098018C01C6
:1044E0008C018C018C018C00CC007800183E1C08DB
:1044F0003608320863046304C304C30383430643DA
:104500008E26781C00000000000000000000000063
:10451000000000001C003C003C0030003000100097
:104520000C00060000000000000000000000000079
:10453000000000000000000000000000000000007B
:10454000000000000000000000000000000000006B
:10455000000000000040002000100008000C0004D3
:104560000006000300030003800180018001800138
:104570008001800180018001000300030003000628
:104580000006000C000800100020004000000000A1
:1045900000000000020004000800100030002000AD
:1045A0006000C000C000C000800180018001800167
:1045B0008001800180018001C000C000C000600057
:1045C000600030001000080004000200000000003D
:1045D00000000000000000000000000000000001DA
:1045E0008003800300011C713C79783DC007000105
:1045F000C007783D3C791C71000180038003800175
:1046000000000000000000000000000000000000AA
:10461000000000000000000000000000000000009A
:104620000001000100010001000100010001FC7F08
:104630000001000100010001000100010001000073
:10464000000000000000000000000000000000006A
:10465000000000000000000000000000000000005A
:10466000000000000000000000000000000000004A
:1046700000000000000000000000000000001C001E
:104680003C003C003000300010000C000600000030
:10469000000000000000000000000000000000001A
:1046A0000000000000000000000000000000FE7F8D
:1046B00000000000000000000000000000000000FA
:1046C00000000000000000000000000000000000EA
:1046D00000000000000000000000000000000000DA
:1046E00000000000000000000000000000000000CA
:1046F00000000000000000000000000018003C0066
:104700003C00180000000000000000000000000055
:104710000000000000400060002000300010001881
:104720000008000C000400060002000300018001E4
:104730008000C00040006000200030001000180021
:1047400008000C0004000600020000000000000049
:1047500000000000000000000000C007600C3018DE
:104760001830183018200C600C600C600C600C6065
:104770000C600C600C600C60182018301830301879
:10478000600CC007000000000000000000000000F6
:104790000000000000000000000000018001F8019E
:1047A0008001800180018001800180018001800101
:1047B00080018001800180018001800180018001F1
:1047C000C003F81F0000000000000000000000000F
:1047D00000000000000000000000E007101C0818A6
:1047E000043004300C300C30003000180008000495
:1047F000000200018000400020201020082004302A
:10480000FC1FFC1F00000000000000000000000072
:1048100000000000000000000000E003180E0C0C77
:104820000C180C180C180018000C0006C003000E21
:1048300000180010003000300C300C300C100C1838
:10484000180CE00300000000000000000000000061
:1048500000000000000000000000000C000E000E30
:10486000000F800E800E400E600E200E100E100EF7
:10487000080E040E040EFE7F000E000E000E000E49
:10488000000E000EC07F00000000000000000000CD
:1048900000000000000000000000F03FF03F1000AA
:1048A0001000100008000800C807280C181808108D
:1048B00000300030003000300C300C300418041888
:1048C000080CF003000000000000000000000000E1
:1048D00000000000000000000000800FC010203029
:1048E00010301800180008000C008C0F6C183C30B9
:1048F0001C600C600C600C600C601860182030307C
:104900006018C00700000000000000000000000068
:1049100000000000000000000000F83FF83F1C10FD
:104920000C08040804040004000200020001000155
:104930000001800080008000C000C000C000C000F6
:10494000C000C000000000000000000000000000E7
:1049500000000000000000000000E007300C181804
:104960000C300C300C301C3038187008E007B007E1
:10497000180E0C1C063806300630063006300C18AF
:10498000180CE00300000000000000000000000020
:1049900000000000000000000000E00318040C0804
:1049A0000C180610063006300630063006380C3C6F
:1049B0001836F03100300018001800180C0C0C06E6
:1049C0000C03F001000000000000000000000000E7
:1049D00000000000000000000000000000000000D7
:1049E00000000000000000008001C003C00380013F
:1049F0000000000000000000000000008001C00373
:104A0000C003800100000000000000000000000062
:104A10000000000000000000000000000000000096
:104A20000000000000000000C000C0000000000006
:104A30000000000000000000000000000000000076
:104A4000C000C00080008000400040000000000066
:104A5000000000000000000000200010000800041A
:104A6000000600038001C0006000300018000C0048
:104A7000180030006000C000800100030006000440
:104A800000080010002000000000000000000000EE
:104A90000000000000000000000000000000000016
:104AA0000000000000000000FE7F00000000000089
:104AB00000000000FE7F0000000000000000000079
:104AC00000000000000000000000000000000000E6
:104AD000000000000000000004000800100020009A
:104AE0006000C000800100030006000C00180030C8
:104AF0000018000C000600038001C00060002000C8
:104B00001000080004000000000000000000000089
:104B10000000000000000000C007301808300860E6
:104B20000C601C601C601C600030001C0006000152
:104B30008000800080008000000000008001C00331
:104B4000C003800100000000000000000000000021
:104B500000000000000000000000C00760181030D6
:104B600018200C2F8C4D864CC64CC64C664C6644A7
:104B70006644662666266615CC1C0C400820183054
:104B80003018C00700000000000000000000000016
:104B900000000000000000000001C001C001C001D1
:104BA0004001600320032003200330061006100696
:104BB0001006F80F080C080C080C0C0C041804184C
:104BC00006181F7C0000000000000000000000002C
:104BD00000000000000000000000FE07181C18384C
:104BE00018301830183018301818180CF807181822
:104BF0001830182018601860186018601860183095
:104C00001818FE0F00000000000000000000000067
:104C100000000000000000000000C02760381030D5
:104C200018200C400C400400060006000600060098
:104C300006000600060006000C400C400C20183050
:104C40003018C00700000000000000000000000055
:104C500000000000000000000000FE03180E1818FD
:104C60001830183018301860186018601860186014
:104C7000186018601860186018301830181018186C
:104C8000180EFE03000000000000000000000000FD
:104C900000000000000000000000FE3F1830182057
:104CA00018601840180018081808180CF80F180C8D
:104CB0001808180818001800180018401840182084
:104CC0001830FE3F0000000000000000000000005F
:104CD00000000000000000000000FE7F1870184077
:104CE00018C018801800181018101818F81F181875
:104CF00018101810180018001800180018001800D4
:104D000018007E000000000000000000000000000D
:104D100000000000000000000000C013701C101014
:104D200018100C200C2004000600060006000600E7
:104D3000060006FC063006300C300C3018301830F7
:104D40003008C00700000000000000000000000064
:104D5000000000000000000000003F7E0C180C184E
:104D60000C180C180C180C180C180C180C18FC1F2C
:104D70000C180C180C180C180C180C180C180C1813
:104D80000C183F7E00000000000000000000000042
:104D900000000000000000000000F81F80018001FA
:104DA00080018001800180018001800180018001FB
:104DB00080018001800180018001800180018001EB
:104DC0008001F81F0000000000000000000000004B
:104DD00000000000000000000000E07F0006000668
:104DE0000006000600060006000600060006000693
:104DF0000006000600060006000600060006000683
:104E00000006000600060E060E038E01FC000000E0
:104E1000000000000000000000007E7C1818180848
:104E2000180418061802180198019801D801B8034F
:104E3000380318071806180E180C181C1818183004
:104E400018307EFC000000000000000000000000A0
:104E5000000000000000000000007E0018001800A4
:104E60001800180018001800180018001800180082
:104E700018001800180018001800184018401820D2
:104E80001830FE3F0000000000000000000000009D
:104E9000000000000000000000001FF81C381C3853
:104EA0001C381C3C34343434343434367432643278
:104EB000643264326431C431C431C431C430C4306A
:104EC00084309FFC00000000000000000000000093
:104ED000000000000000000000001F7C1C103C10BF
:104EE0003410341074106410E410C410C411841110
:104EF0008413041304170416041E041C041C041C4D
:104F000004181F180000000000000000000000004E
:104F100000000000000000000000C003300C181862
:104F200008100C300C3006600660066006600660F3
:104F300006600660066006600C200C300810181829
:104F4000300CC00300000000000000000000000062
:104F500000000000000000000000FE0F18181830CC
:104F60001860186018601860186018301818F80F6A
:104F70001800180018001800180018001800180071
:104F800018007E000000000000000000000000008B
:104F900000000000000000000000C003300C1818E2
:104FA0000C100C300C20066006600660066006607F
:104FB0000660066006600660E4612C331C32181639
:104FC000300EC007004C007C0038000000000000DC
:104FD00000000000000000000000FE07181C183848
:104FE00018301830183018301818180CF8079803B3
:104FF0001803180718061806180E180C180C181C99
:1050000018187E780000000000000000000000007A
:1050100000000000000000000000E02730381830D9
:105020000C200C200C000C0018007800E003800F0E
:10503000001E0038007000600460046008601830D2
:105040003818C80F00000000000000000000000039
:1050500000000000000000000000FC3F8C21846183
:1050600082418241800180018001800180018001B4
:105070008001800180018001800180018001800128
:105080008001E007000000000000000000000000B8
:10509000000000000000000000003F7C0C100C101D
:1050A0000C100C100C100C100C100C100C100C1020
:1050B0000C100C100C100C100C100C100C1008081C
:1050C0003804E003000000000000000000000000C1
:1050D000000000000000000000003EF8182018202A
:1050E0001820301030103010301060086008600850
:1050F000E00CC004C004C00480038003800380036C
:10510000000100010000000000000000000000009D
:1051100000000000000000000000DFF3866186212F
:1051200086218C210C218C238C138C138C134C1313
:1051300058125816580E380E380E380E300C10040F
:105140001004100400000000000000000000000037
:10515000000000000000000000007E3E1808380833
:105160003004300470026002E001C001C00180011F
:1051700080034003400720062006100C100C08187E
:1051800008183E7C00000000000000000000000045
:10519000000000000000000000007E7C1C101810C1
:1051A00018083008300C700460046002C002C002AD
:1051B000C0018001800180018001800180018001A7
:1051C0008001E00700000000000000000000000077
:1051D00000000000000000000000F83F1818081848
:1051E000040C040E00060007000380038001C001C8
:1051F000C000E000600070003000382018201C1053
:105200000C18FE1F0000000000000000000000005D
:1052100000000000C03F400040004000400040004F
:10522000400040004000400040004000400040007E
:10523000400040004000400040004000400040006E
:105240004000400040004000C03F0000000000005F
:105250000000000000000000080018001800100006
:1052600030002000600060004000C000800080012D
:105270008001000100030002000600060004000C8B
:105280000008001800180010003000200000000086
:1052900000000000FC030002000200020002000205
:1052A00000020002000200020002000200020002EE
:1052B00000020002000200020002000200020002DE
:1052C0000002000200020002FC03000000000000D7
:1052D000000000008007C006200810100000000039
:1052E00000000000000000000000000000000000BE
:1052F00000000000000000000000000000000000AE
:10530000000000000000000000000000000000009D
:10531000000000000000000000000000000000008D
:10532000000000000000000000000000000000007D
:10533000000000000000000000000000000000006D
:10534000000000000000000000000000FFFF00005F
:10535000000000007800C000000100000000000014
:10536000000000000000000000000000000000003D
:10537000000000000000000000000000000000002D
:10538000000000000000000000000000000000001D
:10539000000000000000000000000000000000000D
:1053A0000000000000000000F00318060C0C0C0CBC
:1053B000000C800F700C1C0C0C0C060C060C064C20
:1053C0000C4FF83800000000000000000000000052
:1053D000000000000000000010001E00180018006F
:1053E0001800180018001800180FD8183830386046
:1053F000186018601860186018601860182038303D
:105400007818C8070000000000000000000000003D
:10541000000000000000000000000000000000008C
:105420000000000000000000C007700C18181818D9
:105430000C180C000C000C000C000C20182018108C
:105440003008C0070000000000000000000000005D
:1054500000000000000000000010001E00180018EE
:105460000018001800180018E01B301C1818181835
:105470000C180C180C180C180C180C180818181C00
:10548000307AE00900000000000000000000000089
:10549000000000000000000000000000000000000C
:1054A0000000000000000000C007300C18180810B1
:1054B0000C300C30FC3F0C000C000C0018201810B5
:1054C0007018C0070000000000000000000000008D
:1054D00000000000000000000000003E80C380C00B
:1054E000C0C0C000C000C000FC1FC000C000C000A1
:1054F000C000C000C000C000C000C000C000C000AC
:10550000C000F80F000000000000000000000000D4
:10551000000000000000000000000000000000008B
:105520000000000000000000C077306C1018181850
:10553000181818181018300CF00718001800F00F81
:10554000F03F08700C600C600C603838E00F000011
:10555000000000000000000010001E0018001800ED
:105560001800180018001800980FD8183830183094
:1055700018301830183018301830183018301830EB
:1055800018307EFC00000000000000000000000059
:105590000000000000000000000080038003800382
:1055A0000000000000000001F8018001800180017E
:1055B00080018001800180018001800180018001E3
:1055C0008001F81F00000000000000000000000043
:1055D0000000000000000000000000380038003823
:1055E0000000000000000010801F001800180018C4
:1055F00000180018001800180018001800180018EB
:105600000018001800180018180C1806F003000005
:10561000000000000000000010001E00180018002C
:105620001800180018001800183E180C1806180367
:1056300018019801D801380318071806180C181C0F
:1056400018187E7C00000000000000000000000030
:1056500000000000000000000001F801800180014E
:105660008001800180018001800180018001800132
:105670008001800180018001800180018001800122
:105680008001F81F00000000000000000000000082
:10569000000000000000000000000000000000000A
:1056A0000000000000000800EE1C9C338C318C319F
:1056B0008C318C318C318C318C318C318C318C3102
:1056C0008C31DE7B000000000000000000000000C4
:1056D00000000000000000000000000000000000CA
:1056E00000000000000010001E0FD81838301830DD
:1056F000183018301830183018301830183018306A
:1057000018307EFC000000000000000000000000D7
:105710000000000000000000000000000000000089
:105720000000000000000000C007701C103018309E
:105730000C600C600C600C600C600C601830183051
:105740003018C0070000000000000000000000004A
:105750000000000000000000000000000000000049
:1057600000000000000010009E0F5818383018206C
:1057700018601860186018601860186018303830A9
:105780007818980718001800180018007E0000000C
:105790000000000000000000000000000000000009
:1057A0000000000000000000C023303C1838183012
:1057B0000C300C300C300C300C300C3008301838F9
:1057C000303CE033003000300030003000FC00009E
:1057D00000000000000000000000000000000000C9
:1057E00000000000000060007E3C60666061E00038
:1057F000E000600060006000600060006000600029
:105800006000FE0700000000000000000000000033
:105810000000000000000000000000000000000088
:105820000000000000000000E02730381830182089
:1058300018007000E003800F001C043004300C30AE
:105840001C18EC0F00000000000000000000000029
:1058500000000000000000000000000000008000C8
:1058600080008000C000E000FC1FC000C000C0003D
:10587000C000C000C000C000C000C000C020C020E8
:105880008011000F00000000000000000000000078
:105890000000000000000000000000000000000008
:1058A00000000000000010201E3C18301830183096
:1058B00018301830183018301830183018301838A0
:1058C00030F4E013000000000000000000000000C1
:1058D00000000000000000000000000000000000C8
:1058E00000000000000000007E3C1818180838086E
:1058F00030043004700260026002E001C001C001A7
:10590000C000800000000000000000000000000057
:105910000000000000000000000000000000000087
:105920000000000000000000DFF78E630C238C23D2
:105930008C239813981358165816700E700E700E0C
:10594000200420040000000000000000000000000F
:105950000000000000000000000000000000000047
:105960000000000000000000FC3E70087004E0042D
:10597000C002C0018003800340076006200C100CA9
:1059800018183E7E0000000000000000000000002B
:105990000000000000000000000000000000000007
:1059A00000000000000000007E7C18181808300875
:1059B0003008300460046004C002C002C0028001EC
:1059C000800180018000800080004C003C000000CD
:1059D00000000000000000000000000000000000C7
:1059E0000000000000000000FC1F0C0C040E040668
:1059F000000380038001C000E000702030203830B8
:105A00001C18FC1F00000000000000000000000047
:105A1000000000000030000800040004000400043E
:105A200000040004000400040004000400028001DB
:105A30000002000400040004000400040004000448
:105A4000000400040004000400080030000000010D
:105A5000000100010001000100010001000100013E
:105A6000000100010001000100010001000100012E
:105A7000000100010001000100010001000100011E
:105A8000000100010001000100010001000100000F
:105A9000000000000C00100020002000200020006A
:105AA0002000200020002000200020004000800175
:105AB00040002000200020002000200020002000C6
:105AC000200020002000200010000C00000000003A
:105AD0003800C400864002610022001C0000000063
